S00F000054544B343135352E7372656353
S11300000C9438000C9455000C9455000C94550035
S11300100C9455000C9455000C9455000C94550008
S11300200C9455000C9455000C9455000C945500F8
S11300300C9455000C9455000C9455000C945500E8
S11300400C9455000C9455000C9455000C945E01CE
S11300500C9455000C9455000C9455000C945500C8
S11300600C9455000C9455000C9455000C945500B8
S113007011241FBECFEFD4E0DEBFCDBF12E0A0E05D
S1130080B1E0E8E4F0E102C005900D92AE3BB107A7
S1130090D9F722E0AEEBB2E001C01D92AD3CB2074D
S11300A0E1F70E943A020C9422080C94000008958F
S11300B0109200109299FECF089580910010089537
S11300C0EF92FF920F931F93CF937C010E945800ED
S11300D0C0E00DC00C2F10E00E945D00F701E00F9E
S11300E0F11F808388E08A95F1F70000CF5FC43068
S11300F088F3CF911F910F91FF90EF900895CF92C5
S1130100DF92EF92FF920F93CF93DF9300D000D052
S1130110CDB7DEB77C016B01CE0101960E94600071
S1130120D701ED91FC9181E090E08C0F9D1FE80FC9
S1130130F91F04E62CE94FE760E080810E94AA02DF
S1130140D70114962D913C911597280F311D87FDE9
S11301503A95F601318320831296ED91FC91139721
S113016081E090E08C0F9D1FE80FF91F2CE94FE709
S113017060E080810E94AA02D70116962D913C91DD
S11301801797280F311D87FD3A95F6013383228393
S113019080E090E00F900F900F900F90DF91CF913F
S11301A00F91FF90EF90DF90CF9008950F931F93DE
S11301B0CF93DF9300D000D0CDB7DEB78C01BE0162
S11301C06F5F7F4F0E947F00009789F489819A8135
S11301D0919581959109F801958384838B819C8104
S11301E09195819591099783868380E090E00F90A3
S11301F00F900F900F90DF91CF911F910F91089561
S1130200CF93DF93EC010E945700CE010E94D600E9
S1130210DF91CF910895611114C089E191E09F931A
S11302208F930E94DE0388B38B7F88BB83E391E0C6
S11302309F938F930E94DE030F900F900F900F9067
S113024013C086E491E09F938F930E94DE0388B3EA
S1130250846088BB81E691E09F938F930E94DE03C4
S11302600F900F900F900F9080E090E0089587B367
S1130270846B87BB8DB180658DB961E080E090E0CF
S11302800E940B0180E090E0089581B3806281BBFD
S113029080E48FBD89E08EBD81E08ABD1BBC80E017
S11302A090E008955D9BFECF8CB980E090E00895C6
S11302B08CB18093BE0280E090E008951F920F926B
S11302C00FB60F9211242F933F934F935F936F9325
S11302D07F938F939F93AF93BF93EF93FF930E946A
S11302E05801FF91EF91BF91AF919F918F917F91B1
S11302F06F915F914F913F912F910F900FBE0F908F
S11303001F901895FC0182819381A481B581BB2340
S11303101CF40F96A11DB11DBC01CD01689413F806
S113032095958795779567951694D1F720813181B6
S1130330032E000C440B550B0E94E202215031099C
S113034030BD29B988E98AB98EE880BD789468E51A
S113035071E082E591E00E94930380E090E00895CB
S113036085B7806885BF80B7806280BF80E090E0F9
S11303700895EF92FF920F931F93CF93DF9385E934
S113038091E09F938F930E94DE030E9483037C017C
S11303900E9488030F900F90C0E0D0E000E010E0CE
S11303A020C00E948303FE01F85E80832081281709
S11303B0B9F099279F938F931F922F93DF93CF9335
S11303C08DEA91E09F938F930E94DE030F5F1F4F8E
S11303D08DB79EB708960FB6F8949EBF0FBE8DBF1B
S11303E02196C11598E0D907E0F2C7010E9488035D
S11303F0C0E0D0E0E12CF12C20C00E948303FE0178
S1130400F85E20812817C1F099279F938F931F923C
S11304102F93DF93CF938BEE91E09F938F930E9462
S1130420DE038FEFE81AF80A8DB79EB708960FB669
S1130430F8949EBF0FBE8DBF2196C11598E0D907D1
S1130440E0F2FF92EF921F930F938DE292E09F935D
S11304508F930E94DE030F900F900F900F900F90D8
S11304600F9080E090E0DF91CF911F910F91FF906A
S1130470EF90089582E191E00E94820127B3216008
S113048027BB892B21F088B3816088BB60C00E94A0
S1130490B00127B3216027BB892B21F088B3816089
S11304A088BB55C00E94B90127B3216027BB892BA3
S11304B021F088B3816088BB4AC00E94450127B3FC
S11304C0216027BB892B21F088B3816088BB3FC0A2
S11304D080E090E00E94370127B3216027BB892B7D
S11304E021F088B3816088BB32C08AE091E00E9429
S11304F0000127B3216027BB892B21F088B38160D9
S113050088BB25C088E892E09F938F930E94DE0306
S11305100F900F906FEB72E08AE091E00E947F00F1
S1130520EFEBF2E083818F9382818F9381818F93AC
S113053080818F9380EA92E09F938F930E94DE03E1
S11305400F900F900F900F900F900F90E3CF8FEFBD
S11305509FEF08950F931F93A62F660FBB0BE82FF1
S1130560880FFF0BEA1BFB0B002E000C110B021B68
S1130570110927FD1395E09FC001E19F900DF09FA5
S1130580900D1124642F440F770B6A1B7B0B0E9480
S1130590CE02822F860F1F910F91089597FB072E8D
S11305A016F4009407D077FD09D00E94010307FCDC
S11305B005D03EF4909581959F4F0895709561956F
S11305C07F4F0895052E97FB1EF400940E94F902B4
S11305D057FD07D00E94150307FC03D04EF40C947A
S11305E0F90250954095309521953F4F4F4F5F4FFD
S11305F0089590958095709561957F4F8F4F9F4F8B
S11306000895AA1BBB1B51E107C0AA1FBB1FA61755
S1130610B70710F0A61BB70B881F991F5A95A9F7A7
S113062080959095BC01CD010895A1E21A2EAA1BD4
S1130630BB1BFD010DC0AA1FBB1FEE1FFF1FA2178E
S1130640B307E407F50720F0A21BB30BE40BF50B8B
S1130650661F771F881F991F1A9469F76095709514
S1130660809590959B01AC01BD01CF0108958F92B7
S11306709F92AF92BF92CF92DF92EF92FF92CF936D
S1130680DF93EC01688179818A819B816115710511
S11306908105910521F464E279ED8BE597E02DE184
S11306A033EF41E050E00E94E20249015A019B010C
S11306B0AC01A7EAB1E40E94C9076B017C01ACEE6E
S11306C0B4EFA50194010E94D707DC01CB018C0D86
S11306D09D1DAE1DBF1DB7FF03C00197A109B04802
S11306E088839983AA83BB839F77DF91CF91FF90FF
S11306F0EF90DF90CF90BF90AF909F908F90089530
S11307000E943703089580E091E00E943703089522
S1130710A0E0B0E08093000190930101A093020156
S1130720B093030108950F931F93CF93DF93009722
S113073031F46115710519F480E090E03AC08B0141
S1130740EC016EE070E081E090E00E94D505FC01D0
S1130750892B91F380E883830115110571F01387C8
S1130760028781E883838091C3029091C402892B1C
S113077021F4F093C402E093C3022097C9F0D18717
S1130780C0878381826083838091C5029091C60271
S1130790892B71F4F093C602E093C5028091C702DD
S11307A09091C802892B21F4F093C802E093C70208
S11307B0CF01DF91CF911F910F910895A0E0B0E098
S11307C0E4EEF3E00C94EC07AE014B5F5F4FFA01EB
S11307D061917191AF018091C5029091C6020E940E
S11307E0F403E2E00C940808ABE0B0E0EAEFF3E0D5
S11307F00C94DC076C017B018A01FC0117821682D0
S1130800838181FFCCC1CE0101963C01F601938125
S1130810F70193FD859193FF81917F01882309F46A
S1130820BAC1853239F493FD859193FF81917F019B
S1130830853229F4B60190E00E942F07E7CF912C6E
S1130840212C312CFFE1F315D8F08B3279F038F4F8
S1130850803279F08332A1F4232D20611DC08D32C2
S113086061F0803369F4232D216016C0832D8260EA
S1130870382EE32DE4603E2E2AC0F32DF8601DC00F
S113088037FC2DC020ED280F2A3040F08E32B9F409
S113089036FC81C1232D2064322E19C036FE06C0D9
S11308A08AE0989E200D1124922E11C0EAE02E9E1B
S11308B0200D1124222EF32DF0623F2E08C08C3619
S11308C021F4832D8068382E02C0883641F4F70164
S11308D093FD859193FF81917F018111B3CF982F6F
S11308E09F7D9554933028F40C5F1F4F9FE39983A9
S11308F00DC0833631F0833771F0833509F059C068
S113090021C0F801808189830E5F1F4F882483945E
S1130910912C530113C02801F2E04F0E511CF80131
S1130920A080B18036FE03C0692D70E002C06FEF75
S11309307FEFC5010E9424074C018201F32DFF774C
S11309403F2E16C0280122E0420E511CF801A0805F
S1130950B18036FE03C0692D70E002C06FEF7FEFF7
S1130960C5010E9412074C01F32DF0683F2E82014D
S113097033FC1BC0822D90E088169906B0F4B601B2
S113098080E290E00E942F072A94F4CFF50137FC0F
S1130990859137FE81915F01B60190E00E942F0797
S11309A021102A9421E0821A91088114910471F78C
S11309B0E8C0843611F0893641F5F80137FE07C0E6
S11309C060817181828193810C5F1F4F08C06081B7
S11309D07181072E000C880B990B0E5F1F4FF32DAE
S11309E0FF763F2E97FF09C090958095709561958D
S11309F07F4F8F4F9F4FF0683F2E2AE030E0A301D6
S1130A000E946B07882E861845C0853731F4232D44
S1130A102F7EB22E2AE030E025C0932D997FB92E87
S1130A208F36C1F018F4883579F0B5C0803719F0E5
S1130A30883721F0B0C0E92FE061BE2EB4FE0DC0AE
S1130A40FB2DF460BF2E09C034FE0AC0292F266096
S1130A50B22E06C028E030E005C020E130E002C03C
S1130A6020E132E0F801B7FE07C060817181828124
S1130A7093810C5F1F4F06C06081718180E090E01C
S1130A800E5F1F4FA3010E946B07882E8618FB2D53
S1130A90FF773F2E36FE0DC0232D2E7FA22E891404
S1130AA058F434FE0BC032FC09C0832D8E7EA82E70
S1130AB005C0B82CA32C03C0B82C01C0B92CA4FECB
S1130AC00FC0FE01E80DF11D8081803321F49A2DC1
S1130AD0997EA92E09C0A2FE06C0B394B39404C0A3
S1130AE08A2D867809F0B394A3FC11C0A0FE06C039
S1130AF0B21488F4280C922C9B180EC0B21460F423
S1130B00B60180E290E00E942F07B394F7CFB214AD
S1130B1018F42B1802C0982C212CA4FE10C0B60186
S1130B2080E390E00E942F07A2FE17C0A1FC03C03F
S1130B3088E790E002C088E590E0B6010CC08A2DF9
S1130B40867859F0A1FE02C08BE201C080E2A7FCC6
S1130B508DE2B60190E00E942F07891438F4B601A3
S1130B6080E390E00E942F079A94F7CF8A94F301D0
S1130B70E80DF11D8081B60190E00E942F078110DD
S1130B80F5CF222009F442CEB60180E290E00E9423
S1130B902F072A94F6CFF6018681978102C08FEF42
S1130BA09FEF2B96E2E10C94F8070F931F93CF93DA
S1130BB0DF93869F8001879F100D969F100D11244F
S1130BC0C8010E94F105EC01009729F0A80160E03A
S1130BD070E00E941D07CE01DF91CF911F910F910C
S1130BE008950F931F93CF93DF938230910510F4F0
S1130BF082E090E0E091CB02F091CC0220E030E082
S1130C00A0E0B0E0309719F1408151810281138155
S1130C1048175907C8F08417950769F4109731F0FD
S1130C2012960C93129713961C9327C00093CB0231
S1130C301093CC0222C02115310519F04217530735
S1130C4018F49A01BD01EF01DF01F801DBCF211592
S1130C503105F9F0281B390B2430310580F48A81E1
S1130C609B816115710521F0FB019383828304C08C
S1130C709093CC028093CB02FE01329644C0FE01D5
S1130C80E20FF31F81939193225031093983288312
S1130C903AC02091C9023091CA02232B41F4209119
S1130CA00601309107013093CA022093C9022091B2
S1130CB00401309105012115310541F42DB73EB7EA
S1130CC04091080150910901241B350BE091C902A0
S1130CD0F091CA02E217F307A0F42E1B3F0B28176A
S1130CE0390778F0AC014E5F5F4F2417350748F0A1
S1130CF04E0F5F1F5093CA024093C9028193919390
S1130D0002C0E0E0F0E0CF01DF91CF911F910F919D
S1130D100895CF93DF93009709F481C0FC013297C3
S1130D2013821282A091CB02B091CC02109781F46D
S1130D3020813181820F931F2091C9023091CA0210
S1130D402817390751F5F093CA02E093C90267C026
S1130D50ED0120E030E0CE17DF0740F44A815B81EB
S1130D609E0141155105F1F0EA01F5CFD383C28309
S1130D7040815181840F951FC817D90759F4888180
S1130D809981840F951F0296918380838A819B8128
S1130D90938382832115310529F4F093CC02E093E7
S1130DA0CB023DC0E901FB83EA8349915991C40F09
S1130DB0D51FEC17FD0761F480819181840F951F85
S1130DC00296E90199838883828193819B838A8334
S1130DD0E0E0F0E012968D919C911397009719F042
S1130DE0FD01DC01F7CF8D919C9111979D012E5F40
S1130DF03F4F820F931F2091C9023091CA022817D6
S1130E00390769F4309729F41092CC021092CB027E
S1130E1002C013821282B093CA02A093C902DF9166
S1130E20CF910895FC010590615070400110D8F7EE
S1130E30809590958E0F9F1F0895DC0101C06D93DE
S1130E4041505040E0F70895FC016150704001901A
S1130E500110D8F7809590958E0F9F1F08950F93DA
S1130E601F93CF93DF93FB01238121FD03C08FEFF9
S1130E709FEF2CC022FF16C0468157812481358103
S1130E804217530744F4A081B1819D012F5F3F4F66
S1130E90318320838C93268137812F5F3F4F3783A3
S1130EA0268314C08B01EC01FB010084F185E02D45
S1130EB00995892BE1F6D80116968D919C91179787
S1130EC0019617969C938E931697CE01DF91CF913E
S1130ED01F910F910895FA01AA27283051F120316A
S1130EE081F1E8946F936E7F6E5F7F4F8F4F9F4FBA
S1130EF0AF4FB1E03ED0B4E03CD0670F781F891FFC
S1130F009A1FA11D680F791F8A1F911DA11D6A0FC9
S1130F10711D811D911DA11D20D009F468943F917C
S1130F202AE0269F11243019305D3193DEF6CF017B
S1130F300895462F4770405D4193B3E00FD0C9F741
S1130F40F6CF462F4F70405D4A3318F0495D31FDAE
S1130F504052419302D0A9F7EACFB4E0A695979501
S1130F60879577956795BA95C9F7009761057105D7
S1130F7008959B01AC010A2E069457954795379521
S1130F802795BA95C9F7620F731F841F951FA01D7B
S1130F9008950E941308A59F900DB49F900DA49FDF
S1130FA0800D911D11240895B7FF0C94C9070E9468
S1130FB0C907821B930B08952F923F924F925F9221
S1130FC06F927F928F929F92AF92BF92CF92DF9255
S1130FD0EF92FF920F931F93CF93DF93CDB7DEB7BA
S1130FE0CA1BDB0B0FB6F894DEBF0FBECDBF09944E
S1130FF02A88398848885F846E847D848C849B84A5
S1131000AA84B984C884DF80EE80FD800C811B81B2
S1131010AA81B981CE0FD11D0FB6F894DEBF0FBEE1
S1131020CDBFED010895A29FB001B39FC001A39F5E
S1131030700D811D1124911DB29F700D811D11240D
S10B1040911D0895F894FFCFFF
S1131048010000000000CD022000000001000000A3
S11310580000802500004B000073746172742073D3
S1131068657474696E6720736C617665206C6F773C
S11310780A0D00646F6E652073657474696E672069
S11310886C6F770A0D0073746172742073657474DD
S1131098696E6720736C61766520686967680A0DF4
S11310A800646F6E652073657474696E6720736C71
S11310B8617665206C6F770A0D00456E7465722041
S11310C87768696C650A0D00446F6E6520776869F6
S11310D86C650A0D005374617274696E672053520B
S11310E8414D20746573742E2E2E0A0D00577269B3
S11310F87465207068617365206572726F723A2036
S11311086578745F72616D5B2534755D203D2030B0
S11311187825303258202873686F756C64206265AE
S113112820307825303258290A0D005265747269C6
S11311386576616C207068617365206572726F7280
S11311483A206578745F72616D5B2534755D203D66
S113115820307825303258202873686F756C6420E5
S1131168626520307825303258290A0D00535241DF
S11311784D207465737420636F6D706C6574656459
S113118820776974680A0D253475206572726F7248
S11311987320696E2077726974652070686173655D
S11311A820616E640A0D253475206572726F72733E
S11311B820696E2072657472696576616C20706846
S11311C86173650A0D0A0D000A0D2D2D2D496E69EE
S11311D87420436F6D706C6574652D2D2D0A0D0098
S11311E84A6F79737469636B20506F736974696F9C
S11111F86E09583D256409593D25640A0D0011
S9030000FC
