:100000000C9438000C9455000C9455000C94550039
:100010000C9455000C9455000C9455000C9455000C
:100020000C9455000C9455000C9455000C945500FC
:100030000C9455000C9455000C9455000C945500EC
:100040000C9455000C9455000C9455000C94DB0056
:100050000C9455000C9455000C9455000C945500CC
:100060000C9455000C9455000C9455000C945500BC
:1000700011241FBECFEFD4E0DEBFCDBF12E0A0E061
:10008000B1E0E2E5FEE002C005900D92A839B107AB
:10009000D9F722E0A8E9B2E001C01D92A33AB20765
:1000A000E1F70E94B7010C9427070C94000061113E
:1000B00014C081E191E09F938F930E94E30288B383
:1000C0008B7F88BB8BE291E09F938F930E94E3022A
:1000D0000F900F900F900F9013C08EE391E09F93BD
:1000E0008F930E94E30288B3846088BB89E591E026
:1000F0009F938F930E94E3020F900F900F900F90A9
:1001000080E090E0089587B3846A87BB8DB18065F5
:100110008DB961E080E090E00E94570080E090E0BF
:1001200008951F93CF93DF93162FEA0160E080E0DC
:1001300090E00E9457001FB982E791E09F938F9350
:100140000E94E3020F900F90779BFECF80E891E032
:100150009F938F930E94E3028FB1888361E080E0D8
:1001600090E00E9457000F900F9080E090E0DF91A8
:10017000CF911F91089540E050E00E94910080E0EF
:1001800090E0089581B3806281BB80E48FBD89E0F7
:100190008EBD81E08ABD1BBC80E090E008955D9B30
:1001A000FECF8CB980E090E008958CB180939802E6
:1001B00080E090E008951F920F920FB60F921124E5
:1001C0002F933F934F935F936F937F938F939F935F
:1001D000AF93BF93EF93FF930E94D500FF91EF91F0
:1001E000BF91AF919F918F917F916F915F914F914F
:1001F0003F912F910F900FBE0F901F901895FC010B
:1002000082819381A481B581BB231CF40F96A11D2B
:10021000B11DBC01CD01689413F89595879577952C
:1002200067951694D1F720813181032E000C440B81
:10023000550B0E94FB012150310930BD29B988E9D5
:100240008AB98EE880BD789465ED70E08FEC90E01F
:100250000E94980280E090E0089585B7806885BF8D
:1002600080B7806280BF80E090E00895EF92FF92B7
:100270000F931F93CF93DF938DE891E09F938F931C
:100280000E94E3020E9488027C010E948D020F906E
:100290000F90C0E0D0E000E010E020C00E94880293
:1002A000FE01F85E808320812817B9F099279F937B
:1002B0008F931F922F93DF93CF9385EA91E09F93C3
:1002C0008F930E94E3020F5F1F4F8DB79EB7089672
:1002D0000FB6F8949EBF0FBE8DBF2196C11598E052
:1002E000D907E0F2C7010E948D02C0E0D0E0E12C06
:1002F000F12C20C00E948802FE01F85E20812817A0
:10030000C1F099279F938F931F922F93DF93CF93E1
:1003100083EE91E09F938F930E94E3028FEFE81AA0
:10032000F80A8DB79EB708960FB6F8949EBF0FBE19
:100330008DBF2196C11598E0D907E0F2FF92EF92A8
:100340001F930F9385E292E09F938F930E94E302A5
:100350000F900F900F900F900F900F9080E090E013
:10036000DF91CF911F910F91FF90EF9008958AE058
:1003700091E00E94FF0027B3216027BB892B21F069
:1003800088B3816088BB34C00E942D0127B32160EF
:1003900027BB892B21F088B3816088BB29C00E94CC
:1003A000360127B3216027BB892B21F088B38160F8
:1003B00088BB1EC00E94C20027B3216027BB892BC7
:1003C00021F088B3816088BB13C080E090E00E9478
:1003D000830080E892E09F938F930E94E3020F9046
:1003E0000F906BE670E080E090E00E94BB00F9CFD8
:1003F0008FEF9FEF0895052E97FB1EF400940E9447
:10040000120257FD07D00E941A0207FC03D04EF4D7
:100410000C94120250954095309521953F4F4F4FC7
:100420005F4F089590958095709561957F4F8F4FA0
:100430009F4F0895A1E21A2EAA1BBB1BFD010DC000
:10044000AA1FBB1FEE1FFF1FA217B307E407F50784
:1004500020F0A21BB30BE40BF50B661F771F881F60
:10046000991F1A9469F760957095809590959B01F6
:10047000AC01BD01CF0108958F929F92AF92BF92C0
:10048000CF92DF92EF92FF92CF93DF93EC016881DE
:1004900079818A819B81611571058105910521F41E
:1004A00064E279ED8BE597E02DE133EF41E050E038
:1004B0000E94FB0149015A019B01AC01A7EAB1E48A
:1004C0000E94CE066B017C01ACEEB4EFA501940155
:1004D0000E94DC06DC01CB018C0D9D1DAE1DBF1DF5
:1004E000B7FF03C00197A109B04888839983AA8305
:1004F000BB839F77DF91CF91FF90EF90DF90CF90FC
:10050000BF90AF909F908F9008950E943C020895F5
:1005100080E091E00E943C020895A0E0B0E080936A
:10052000000190930101A0930201B093030108958B
:100530000F931F93CF93DF93009731F461157105EB
:1005400019F480E090E03AC08B01EC016EE070E0BD
:1005500081E090E00E94DA04FC01892B91F380E8AD
:1005600083830115110571F01387028781E8838366
:100570008091990290919A02892B21F4F0939A022A
:10058000E09399022097C9F0D187C0878381826068
:10059000838380919B0290919C02892B71F4F0934C
:1005A0009C02E0939B0280919D0290919E02892B78
:1005B00021F4F0939E02E0939D02CF01DF91CF9151
:1005C0001F910F910895A0E0B0E0E9EEF2E00C94E5
:1005D000F106AE014B5F5F4FFA0161917191AF017E
:1005E00080919B0290919C020E94F902E2E00C949F
:1005F0000D07ABE0B0E0EFEFF2E00C94E1066C0128
:100600007B018A01FC0117821682838181FFCCC1A4
:10061000CE0101963C01F6019381F70193FD85918E
:1006200093FF81917F01882309F4BAC1853239F49F
:1006300093FD859193FF81917F01853229F4B60165
:1006400090E00E943406E7CF912C212C312CFFE161
:10065000F315D8F08B3279F038F4803279F08332A8
:10066000A1F4232D20611DC08D3261F0803369F427
:10067000232D216016C0832D8260382EE32DE46087
:100680003E2E2AC0F32DF8601DC037FC2DC020ED92
:10069000280F2A3040F08E32B9F436FC81C1232D68
:1006A0002064322E19C036FE06C08AE0989E200DC6
:1006B0001124922E11C0EAE02E9E200D1124222E2C
:1006C000F32DF0623F2E08C08C3621F4832D806814
:1006D000382E02C0883641F4F70193FD859193FFCF
:1006E00081917F018111B3CF982F9F7D95549330D5
:1006F00028F40C5F1F4F9FE399830DC0833631F0C0
:10070000833771F0833509F059C021C0F801808129
:1007100089830E5F1F4F88248394912C530113C04B
:100720002801F2E04F0E511CF801A080B18036FE86
:1007300003C0692D70E002C06FEF7FEFC5010E941A
:1007400029064C018201F32DFF773F2E16C02801A8
:1007500022E0420E511CF801A080B18036FE03C099
:10076000692D70E002C06FEF7FEFC5010E94170690
:100770004C01F32DF0683F2E820133FC1BC0822D0B
:1007800090E088169906B0F4B60180E290E00E94ED
:1007900034062A94F4CFF50137FC859137FE819118
:1007A0005F01B60190E00E94340621102A9421E0F6
:1007B000821A91088114910471F7E8C0843611F00F
:1007C000893641F5F80137FE07C060817181828169
:1007D00093810C5F1F4F08C060817181072E000C50
:1007E000880B990B0E5F1F4FF32DFF763F2E97FF5F
:1007F00009C090958095709561957F4F8F4F9F4F61
:10080000F0683F2E2AE030E0A3010E947006882E97
:10081000861845C0853731F4232D2F7EB22E2AE06D
:1008200030E025C0932D997FB92E8F36C1F018F492
:10083000883579F0B5C0803719F0883721F0B0C01D
:10084000E92FE061BE2EB4FE0DC0FB2DF460BF2E7B
:1008500009C034FE0AC0292F2660B22E06C028E047
:1008600030E005C020E130E002C020E132E0F801D4
:10087000B7FE07C060817181828193810C5F1F4F39
:1008800006C06081718180E090E00E5F1F4FA30180
:100890000E947006882E8618FB2DFF773F2E36FEAD
:1008A0000DC0232D2E7FA22E891458F434FE0BC0C8
:1008B00032FC09C0832D8E7EA82E05C0B82CA32C37
:1008C00003C0B82C01C0B92CA4FE0FC0FE01E80D76
:1008D000F11D8081803321F49A2D997EA92E09C0C3
:1008E000A2FE06C0B394B39404C08A2D867809F0A2
:1008F000B394A3FC11C0A0FE06C0B21488F4280C67
:10090000922C9B180EC0B21460F4B60180E290E005
:100910000E943406B394F7CFB21418F42B1802C017
:10092000982C212CA4FE10C0B60180E390E00E9418
:100930003406A2FE17C0A1FC03C088E790E002C005
:1009400088E590E0B6010CC08A2D867859F0A1FEAA
:1009500002C08BE201C080E2A7FC8DE2B60190E00C
:100960000E943406891438F4B60180E390E00E94B6
:1009700034069A94F7CF8A94F301E80DF11D808133
:10098000B60190E00E9434068110F5CF222009F4D0
:1009900042CEB60180E290E00E9434062A94F6CF5F
:1009A000F6018681978102C08FEF9FEF2B96E2E1DF
:1009B0000C94FD060F931F93CF93DF93869F8001C6
:1009C000879F100D969F100D1124C8010E94F604F8
:1009D000EC01009729F0A80160E070E00E94220677
:1009E000CE01DF91CF911F910F9108950F931F9327
:1009F000CF93DF938230910510F482E090E0E09194
:100A0000A102F091A20220E030E0A0E0B0E0309737
:100A100019F1408151810281138148175907C8F0AB
:100A20008417950769F4109731F012960C9312977A
:100A300013961C9327C00093A1021093A20222C018
:100A40002115310519F04217530718F49A01BD0119
:100A5000EF01DF01F801DBCF21153105F9F0281B8B
:100A6000390B2430310580F48A819B816115710531
:100A700021F0FB019383828304C09093A2028093B0
:100A8000A102FE01329644C0FE01E20FF31F8193E2
:100A9000919322503109398328833AC020919F02D3
:100AA0003091A002232B41F42091060130910701DF
:100AB0003093A00220939F02209104013091050100
:100AC0002115310541F42DB73EB7409108015091F1
:100AD0000901241B350BE0919F02F091A002E2175F
:100AE000F307A0F42E1B3F0B2817390778F0AC0151
:100AF0004E5F5F4F2417350748F04E0F5F1F50932E
:100B0000A00240939F028193919302C0E0E0F0E045
:100B1000CF01DF91CF911F910F910895CF93DF9374
:100B2000009709F481C0FC01329713821282A091D0
:100B3000A102B091A202109781F420813181820F2D
:100B4000931F20919F023091A0022817390751F579
:100B5000F093A002E0939F0267C0ED0120E030E037
:100B6000CE17DF0740F44A815B819E014115510594
:100B7000F1F0EA01F5CFD383C28340815181840F24
:100B8000951FC817D90759F488819981840F951F3B
:100B90000296918380838A819B819383828321152E
:100BA000310529F4F093A202E093A1023DC0E901CE
:100BB000FB83EA8349915991C40FD51FEC17FD07B8
:100BC00061F480819181840F951F0296E9019983D8
:100BD0008883828193819B838A83E0E0F0E0129690
:100BE0008D919C911397009719F0FD01DC01F7CFCF
:100BF0008D919C9111979D012E5F3F4F820F931F06
:100C000020919F023091A0022817390769F430978C
:100C100029F41092A2021092A10202C01382128241
:100C2000B093A002A0939F02DF91CF910895FC01A1
:100C30000590615070400110D8F7809590958E0F07
:100C40009F1F0895DC0101C06D9341505040E0F7B3
:100C50000895FC016150704001900110D8F7809513
:100C600090958E0F9F1F08950F931F93CF93DF933F
:100C7000FB01238121FD03C08FEF9FEF2CC022FFDA
:100C800016C046815781248135814217530744F4A9
:100C9000A081B1819D012F5F3F4F318320838C93D1
:100CA000268137812F5F3F4F3783268314C08B0106
:100CB000EC01FB010084F185E02D0995892BE1F61B
:100CC000D80116968D919C911797019617969C9333
:100CD0008E931697CE01DF91CF911F910F910895BA
:100CE000FA01AA27283051F1203181F1E8946F935D
:100CF0006E7F6E5F7F4F8F4F9F4FAF4FB1E03ED003
:100D0000B4E03CD0670F781F891F9A1FA11D680FA0
:100D1000791F8A1F911DA11D6A0F711D811D911DD3
:100D2000A11D20D009F468943F912AE0269F112448
:100D30003019305D3193DEF6CF010895462F4770AC
:100D4000405D4193B3E00FD0C9F7F6CF462F4F7007
:100D5000405D4A3318F0495D31FD4052419302D065
:100D6000A9F7EACFB4E0A69597958795779567950B
:100D7000BA95C9F700976105710508959B01AC010B
:100D80000A2E06945795479537952795BA95C9F732
:100D9000620F731F841F951FA01D08950E941807DE
:100DA000A59F900DB49F900DA49F800D911D1124BF
:100DB0000895B7FF0C94CE060E94CE06821B930BBB
:100DC00008952F923F924F925F926F927F928F92EF
:100DD0009F92AF92BF92CF92DF92EF92FF920F93CA
:100DE0001F93CF93DF93CDB7DEB7CA1BDB0B0FB6D4
:100DF000F894DEBF0FBECDBF09942A883988488891
:100E00005F846E847D848C849B84AA84B984C88426
:100E1000DF80EE80FD800C811B81AA81B981CE0F1D
:100E2000D11D0FB6F894DEBF0FBECDBFED01089502
:100E3000A29FB001B39FC001A39F700D811D11241B
:100E4000911DB29F700D811D1124911D0895F8947C
:020E5000FFCFD2
:100E5200010000000000A3022000802500004B00DA
:100E62000073746172742073657474696E672073A1
:100E72006C617665206C6F770A0D00646F6E652079
:100E820073657474696E67206C6F770A0D007374F2
:100E92006172742073657474696E6720736C617615
:100EA2006520686967680A0D00646F6E6520736566
:100EB2007474696E6720736C617665206C6F770A53
:100EC2000D00456E746572207768696C650A0D00C5
:100ED200446F6E65207768696C650A0D0053746112
:100EE2007274696E67205352414D20746573742E7B
:100EF2002E2E0A0D00577269746520706861736541
:100F0200206572726F723A206578745F72616D5BF0
:100F12002534755D203D20307825303258202873E5
:100F2200686F756C642062652030782530325829EC
:100F32000A0D0052657472696576616C2070686191
:100F42007365206572726F723A206578745F7261A0
:100F52006D5B2534755D203D203078253032582078
:100F62002873686F756C6420626520307825303292
:100F720058290A0D005352414D2074657374206341
:100F82006F6D706C6574656420776974680A0D25ED
:100F92003475206572726F727320696E2077726980
:100FA200746520706861736520616E640A0D253472
:100FB20075206572726F727320696E207265747229
:100FC200696576616C2070686173650A0D0A0D00AF
:100FD2000A0D2D2D2D496E697420436F6D706C655D
:080FE20074652D2D2D0A0D0090
:00000001FF
