:100000000C9438000C9442000C9442000C94420072
:100010000C9442000C9442000C9442000C94420058
:100020000C9442000C9442000C9442000C94420048
:100030000C9442000C9442000C9442000C94420038
:100040000C9442000C9442000C9442000C94420028
:100050000C9442000C9442000C9442000C94420018
:100060000C9442000C9442000C9442000C94420008
:1000700011241FBECFEFD4E0DEBFCDBF0E944400ED
:100080000C945A000C940000BD9AC59A2FE986E89A
:1000900091E0215080409040E1F700C00000C598F9
:1000A0002FE986E891E0215080409040E1F700C0C0
:0800B0000000EBCFF894FFCF34
:00000001FF
